{
  "_format": "hh-sol-artifact-1",
  "contractName": "Voting",
  "sourceName": "contracts/voting.sol",
  "abi": [
    {
      "inputs": [],
      "stateMutability": "nonpayable",
      "type": "constructor"
    },
    {
      "anonymous": false,
      "inputs": [
        {
          "indexed": false,
          "internalType": "uint256",
          "name": "id",
          "type": "uint256"
        },
        {
          "indexed": false,
          "internalType": "string",
          "name": "description",
          "type": "string"
        }
      ],
      "name": "ProposalCreated",
      "type": "event"
    },
    {
      "anonymous": false,
      "inputs": [
        {
          "indexed": false,
          "internalType": "address",
          "name": "voter",
          "type": "address"
        },
        {
          "indexed": false,
          "internalType": "uint256",
          "name": "proposalId",
          "type": "uint256"
        }
      ],
      "name": "Voted",
      "type": "event"
    },
    {
      "inputs": [
        {
          "internalType": "string",
          "name": "_description",
          "type": "string"
        }
      ],
      "name": "addProposal",
      "outputs": [],
      "stateMutability": "nonpayable",
      "type": "function"
    },
    {
      "inputs": [],
      "name": "admin",
      "outputs": [
        {
          "internalType": "address",
          "name": "",
          "type": "address"
        }
      ],
      "stateMutability": "view",
      "type": "function"
    },
    {
      "inputs": [
        {
          "internalType": "uint256",
          "name": "_proposalId",
          "type": "uint256"
        }
      ],
      "name": "getProposal",
      "outputs": [
        {
          "internalType": "uint256",
          "name": "id",
          "type": "uint256"
        },
        {
          "internalType": "string",
          "name": "description",
          "type": "string"
        },
        {
          "internalType": "uint256",
          "name": "voteCount",
          "type": "uint256"
        }
      ],
      "stateMutability": "view",
      "type": "function"
    },
    {
      "inputs": [
        {
          "internalType": "address",
          "name": "",
          "type": "address"
        }
      ],
      "name": "hasVoted",
      "outputs": [
        {
          "internalType": "bool",
          "name": "",
          "type": "bool"
        }
      ],
      "stateMutability": "view",
      "type": "function"
    },
    {
      "inputs": [],
      "name": "proposalCount",
      "outputs": [
        {
          "internalType": "uint256",
          "name": "",
          "type": "uint256"
        }
      ],
      "stateMutability": "view",
      "type": "function"
    },
    {
      "inputs": [
        {
          "internalType": "uint256",
          "name": "",
          "type": "uint256"
        }
      ],
      "name": "proposals",
      "outputs": [
        {
          "internalType": "uint256",
          "name": "id",
          "type": "uint256"
        },
        {
          "internalType": "string",
          "name": "description",
          "type": "string"
        },
        {
          "internalType": "uint256",
          "name": "voteCount",
          "type": "uint256"
        }
      ],
      "stateMutability": "view",
      "type": "function"
    },
    {
      "inputs": [
        {
          "internalType": "uint256",
          "name": "_proposalId",
          "type": "uint256"
        }
      ],
      "name": "vote",
      "outputs": [],
      "stateMutability": "nonpayable",
      "type": "function"
    }
  ],
  "bytecode": "0x6080604052348015600f57600080fd5b50336000806101000a81548173ffffffffffffffffffffffffffffffffffffffff021916908373ffffffffffffffffffffffffffffffffffffffff160217905550610f788061005f6000396000f3fe608060405234801561001057600080fd5b506004361061007d5760003560e01c80632fdae3c51161005b5780632fdae3c514610100578063c7f758a81461011c578063da35c6641461014e578063f851a4401461016c5761007d565b80630121b93f14610082578063013cf08b1461009e57806309eef43e146100d0575b600080fd5b61009c6004803603810190610097919061069c565b61018a565b005b6100b860048036038101906100b3919061069c565b610328565b6040516100c793929190610768565b60405180910390f35b6100ea60048036038101906100e59190610804565b6103da565b6040516100f7919061084c565b60405180910390f35b61011a6004803603810190610115919061099c565b6103fa565b005b6101366004803603810190610131919061069c565b61053e565b60405161014593929190610768565b60405180910390f35b610156610628565b60405161016391906109e5565b60405180910390f35b61017461062e565b6040516101819190610a0f565b60405180910390f35b600360003373ffffffffffffffffffffffffffffffffffffffff1673ffffffffffffffffffffffffffffffffffffffff16815260200190815260200160002060009054906101000a900460ff1615610217576040517f08c379a000000000000000000000000000000000000000000000000000000000815260040161020e90610a76565b60405180910390fd5b60008111801561022957506001548111155b610268576040517f08c379a000000000000000000000000000000000000000000000000000000000815260040161025f90610ae2565b60405180910390fd5b6001600360003373ffffffffffffffffffffffffffffffffffffffff1673ffffffffffffffffffffffffffffffffffffffff16815260200190815260200160002060006101000a81548160ff0219169083151502179055506002600082815260200190815260200160002060020160008154809291906102e790610b31565b91905055507f4d99b957a2bc29a30ebd96a7be8e68fe50a3c701db28a91436490b7d53870ca4338260405161031d929190610b79565b60405180910390a150565b600260205280600052604060002060009150905080600001549080600101805461035190610bd1565b80601f016020809104026020016040519081016040528092919081815260200182805461037d90610bd1565b80156103ca5780601f1061039f576101008083540402835291602001916103ca565b820191906000526020600020905b8154815290600101906020018083116103ad57829003601f168201915b5050505050908060020154905083565b60036020528060005260406000206000915054906101000a900460ff1681565b60008054906101000a900473ffffffffffffffffffffffffffffffffffffffff1673ffffffffffffffffffffffffffffffffffffffff163373ffffffffffffffffffffffffffffffffffffffff1614610488576040517f08c379a000000000000000000000000000000000000000000000000000000000815260040161047f90610c74565b60405180910390fd5b6001600081548092919061049b90610b31565b91905055506040518060600160405280600154815260200182815260200160008152506002600060015481526020019081526020016000206000820151816000015560208201518160010190816104f29190610e40565b50604082015181600201559050507f9c770c289ab5bf7e57cb1d23c8ceae993aea46eb64847072fd3d78ca60d3e43260015482604051610533929190610f12565b60405180910390a150565b60006060600080600260008681526020019081526020016000206040518060600160405290816000820154815260200160018201805461057d90610bd1565b80601f01602080910402602001604051908101604052809291908181526020018280546105a990610bd1565b80156105f65780601f106105cb576101008083540402835291602001916105f6565b820191906000526020600020905b8154815290600101906020018083116105d957829003601f168201915b505050505081526020016002820154815250509050806000015181602001518260400151935093509350509193909250565b60015481565b60008054906101000a900473ffffffffffffffffffffffffffffffffffffffff1681565b6000604051905090565b600080fd5b600080fd5b6000819050919050565b61067981610666565b811461068457600080fd5b50565b60008135905061069681610670565b92915050565b6000602082840312156106b2576106b161065c565b5b60006106c084828501610687565b91505092915050565b6106d281610666565b82525050565b600081519050919050565b600082825260208201905092915050565b60005b838110156107125780820151818401526020810190506106f7565b60008484015250505050565b6000601f19601f8301169050919050565b600061073a826106d8565b61074481856106e3565b93506107548185602086016106f4565b61075d8161071e565b840191505092915050565b600060608201905061077d60008301866106c9565b818103602083015261078f818561072f565b905061079e60408301846106c9565b949350505050565b600073ffffffffffffffffffffffffffffffffffffffff82169050919050565b60006107d1826107a6565b9050919050565b6107e1816107c6565b81146107ec57600080fd5b50565b6000813590506107fe816107d8565b92915050565b60006020828403121561081a5761081961065c565b5b6000610828848285016107ef565b91505092915050565b60008115159050919050565b61084681610831565b82525050565b6000602082019050610861600083018461083d565b92915050565b600080fd5b600080fd5b7f4e487b7100000000000000000000000000000000000000000000000000000000600052604160045260246000fd5b6108a98261071e565b810181811067ffffffffffffffff821117156108c8576108c7610871565b5b80604052505050565b60006108db610652565b90506108e782826108a0565b919050565b600067ffffffffffffffff82111561090757610906610871565b5b6109108261071e565b9050602081019050919050565b82818337600083830152505050565b600061093f61093a846108ec565b6108d1565b90508281526020810184848401111561095b5761095a61086c565b5b61096684828561091d565b509392505050565b600082601f83011261098357610982610867565b5b813561099384826020860161092c565b91505092915050565b6000602082840312156109b2576109b161065c565b5b600082013567ffffffffffffffff8111156109d0576109cf610661565b5b6109dc8482850161096e565b91505092915050565b60006020820190506109fa60008301846106c9565b92915050565b610a09816107c6565b82525050565b6000602082019050610a246000830184610a00565b92915050565b7f596f75206861766520616c726561647920766f74656400000000000000000000600082015250565b6000610a606016836106e3565b9150610a6b82610a2a565b602082019050919050565b60006020820190508181036000830152610a8f81610a53565b9050919050565b7f496e76616c69642070726f706f73616c20494400000000000000000000000000600082015250565b6000610acc6013836106e3565b9150610ad782610a96565b602082019050919050565b60006020820190508181036000830152610afb81610abf565b9050919050565b7f4e487b7100000000000000000000000000000000000000000000000000000000600052601160045260246000fd5b6000610b3c82610666565b91507fffffffffffffffffffffffffffffffffffffffffffffffffffffffffffffffff8203610b6e57610b6d610b02565b5b600182019050919050565b6000604082019050610b8e6000830185610a00565b610b9b60208301846106c9565b9392505050565b7f4e487b7100000000000000000000000000000000000000000000000000000000600052602260045260246000fd5b60006002820490506001821680610be957607f821691505b602082108103610bfc57610bfb610ba2565b5b50919050565b7f4f6e6c792061646d696e2063616e20706572666f726d2074686973206163746960008201527f6f6e000000000000000000000000000000000000000000000000000000000000602082015250565b6000610c5e6022836106e3565b9150610c6982610c02565b604082019050919050565b60006020820190508181036000830152610c8d81610c51565b9050919050565b60008190508160005260206000209050919050565b60006020601f8301049050919050565b600082821b905092915050565b600060088302610cf67fffffffffffffffffffffffffffffffffffffffffffffffffffffffffffffffff82610cb9565b610d008683610cb9565b95508019841693508086168417925050509392505050565b6000819050919050565b6000610d3d610d38610d3384610666565b610d18565b610666565b9050919050565b6000819050919050565b610d5783610d22565b610d6b610d6382610d44565b848454610cc6565b825550505050565b600090565b610d80610d73565b610d8b818484610d4e565b505050565b5b81811015610daf57610da4600082610d78565b600181019050610d91565b5050565b601f821115610df457610dc581610c94565b610dce84610ca9565b81016020851015610ddd578190505b610df1610de985610ca9565b830182610d90565b50505b505050565b600082821c905092915050565b6000610e1760001984600802610df9565b1980831691505092915050565b6000610e308383610e06565b9150826002028217905092915050565b610e49826106d8565b67ffffffffffffffff811115610e6257610e61610871565b5b610e6c8254610bd1565b610e77828285610db3565b600060209050601f831160018114610eaa5760008415610e98578287015190505b610ea28582610e24565b865550610f0a565b601f198416610eb886610c94565b60005b82811015610ee057848901518255600182019150602085019450602081019050610ebb565b86831015610efd5784890151610ef9601f891682610e06565b8355505b6001600288020188555050505b505050505050565b6000604082019050610f2760008301856106c9565b8181036020830152610f39818461072f565b9050939250505056fea2646970667358221220dbec0eb9f9c714bfdfcec9b1845dec6dea230e2c7ee613b2cbcd57b5d668c0d264736f6c634300081c0033",
  "linkReferences": {},
  "deployedLinkReferences": {}
}